:020000020000FC
:100000000C9430000C9443000C9443000C94430077
:100010000C9443000C9443000C9443000C94430054
:100020000C9443000C9443000C9443000C94430044
:100030000C9443000C9443000C9443000C94430034
:100040000C9443000C9443000C9443000C94430024
:040050000C944300C9
:1000600011241FE51DBF14E01EBF10E814BF14BF0C
:100070001FEF1ABB17BB1BBB18BB14BB11BB15BAB8
:1000800012BA002754C01895742F54E165EF6A9591
:10009000F1F75A95D9F77A95C1F7089512B31F7EF3
:1000A00012BB089512B3137F106112BB089503951C
:1000B000043009F0089500E0089512B30F93000F83
:1000C000000F137F102B10610F9112BB08951FE0DA
:1000D00014BB8FE080958F7085BB0000000000008E
:1000E0000000000000000000000083B3807F982B18
:1000F0008827089510EF14BB80EF8095807F85BB23
:1001000000000000000000000000000000000000EF
:1001100083B38F70982B1FE091270895C4E6D0E039
:100120000895FCDF188219821A821B820895BADFB3
:1001300003950F3F9927C1DF03E0492E45BAC7DF7A
:10014000D9DF492E11E1142119F012E11421F1F047
:1001500003E0102F102F1F703AD002E0102F107EF6
:100160001295102F1F7033D001E0102F10711295CF
:10017000102F1F702CD000E0102F1F70102F1F7039
:1001800026D003950F3F99F60027D1CF03E0102F1B
:10019000102F1F701CD002E0102F107E1295102F10
:1001A0001F7015D001E0102F10711295102F1F70C5
:1001B0000ED000E0102F1F70102F1F7008D00A956E
:1001C0000F3F19F4002701C00895B1CF089545BA33
:1001D0001FEF14BBC0F9A4B0999282F88090888375
:0401E000C6A1868EA0
:00000001FF
