:020000020000FC
:100000000C9430000C942A000C942A000C942A00C2
:100010000C942A000C942A000C942A000C942A00B8
:100020000C942A000C942A000C942A000C942A00A8
:100030000C942A000C942A000C942A000C942A0098
:100040000C942A000C942A000C942A000C942A0088
:060050000C942A00189533
:1000600000245FE55DBF54E05EBF50E854BF54BF5D
:100070002FC0E0EEF0E00895C0E6D0E00895ACEEC9
:10008000B0E00895059108950993089508811981B4
:1000900001170CF001D00895188309830895059184
:1000A000099333956395EA17FB07C9F73A956A9563
:1000B0000895ECDF219623952317D9F73A95DCDFD5
:1000C00022270895F6DF43954617E1F74427089560
:1000D000D0DFD2DFD4DF3327E2DFCEDFF3DFF8CFAC
:0C00E00009161312070A10010C15190371
:00000001FF
