:020000020000FC
:100000000C9430000C9484000C9484000C948400B4
:100010000C9484000C9484000C9484000C94840050
:100020000C9484000C9484000C9484000C9457006D
:100030000C9470000C947C000C9484000C9484004C
:100040000C9484000C9484000C9484000C94520052
:040050000C94840088
:10006000112444270FE50DBF04E00EBF00E804BFD4
:1000700004BF0CE003BF02E30CBF08EB0AB906E8BB
:1000800000BD0FE509B910BC0FEF0ABB07BB14BADE
:1000900011BA0BBB08BB05BB02BB412D112D212D95
:1000A000789433C001E10CB90DEF09BF18951CB16C
:1000B000173109F410C0113618F4113430F409C0A6
:1000C0001B3738F41052312F06C01A3510F4105E69
:1000D00002C03FE301C0312F0AB100620AB918958E
:1000E0004395433021F444270AB100640AB93CB96E
:1000F0000AB10F7D0AB9189503E10CB90AB10F7B5B
:0E0100000AB902E009BF189518953BBBFECF67
:00000001FF
