:020000020000FC
:100000000C9430000C9484000C9484000C948400B4
:100010000C9484000C9484000C9484000C94840050
:100020000C9484000C9484000C9484000C94840040
:100030000C9484000C9484000C9484000C94840030
:100040000C9484000C9484000C9484000C9455004F
:040050000C94840088
:100060001124992711272227332744270FE50DBF95
:1000700004E00EBF00E804BF04BF0DE003BF02E3CD
:100080000CBF02E009BF08E90AB906E800BD0FE5A8
:1000900009B910BC0FEF0ABB07BB14BA11BA0BBBEE
:1000A00008BB05BB02BB789430C093959370903029
:1000B000F9F0913059F0923091F04F77ECE9F2E09D
:1000C000E40FF11D049043954F771BC02F77EEE9A5
:1000D000F1E0E20FF11D04902C5F2F7712C03F7703
:1000E000ECE1F2E0E30FF11D049033953F7709C096
:1000F0001F77EEE1F1E0E10FF11D049013951F77FA
:1001000000C0502D0CB8189518955BBBFECF0FE7BB
:100110002023EEE1F1E0E20FF11D04900895404349
:1001200046494C4F5255585B5E606366686A6D6F16
:100130007173757678797B7C7D7E7E7F7F7F7F7F14
:100140007F7F7E7E7D7C7B7978767573716F6D6A3B
:10015000686663605E5B5855524F4C494643403C6D
:10016000393633302D2A2724211F1C191715121058
:100170000E0C0A090706040302010100000000003A
:10018000000001010203040607090A0C0E101215F3
:1001900017191C1F2124272A2D303336393C3C3EA9
:1001A00040424446484A4C4E50525456585A5C5E5F
:1001B00060626466686A6C6E70727476787A7C7A53
:1001C00078767472706E6C6A68666462605E5C5A9F
:1001D00058565452504E4C4A48464442403E3C3A8F
:1001E00038363432302E2C2A28262422201E1C1A7F
:1001F00018161412100E0C0A080604020002040657
:10020000080A0C0E10121416181A1C1E202224267E
:10021000282A2C2E30323436383A3C3E4046505A4A
:10022000646E788296C8EADC8A80808080808080D4
:1002300080808080808080808080808080808080BE
:1002400080808080808080808080808080808080AE
:100250008A887C665A4E38362A2826241816141C9A
:10026000100E0C0A08060402000000000000000046
:10027000000000000000000000000000000000007E
:10028000000000000000000000000000000000006E
:100290000A16222430323436383A3C3E001F2C36BF
:1002A0003F464D53595F64696D72767A7E82868AC5
:1002B0008D9194989B9EA1A4A7AAADB0B3B6B8BBEC
:1002C000BEC0C3C5C8CACDCFD2D4D7D9DBDDE0E22A
:1002D000E4E6E8EBEDEFF1F3F5F7F9FBFDAA7F6655
:1002E00055483F38332E2A2724221F1E1C1A19185E
:1002F000171615141312121111100F0F0F0E0E0DE9
:100300000D0D0C0C0C0B0B0B0B0A0A0A0A0A09093F
:0C03100009090908080808080808070780
:00000001FF
