:020000020000FC
:100000000C9430000C94CC000C94CC000C94CC00DC
:100010000C94CC000C94CC000C944F000C94CC00AD
:100020000C94CC000C94CC000C94CC000C94CC0020
:100030000C94CC000C94CC000C94CC000C94CC0010
:100040000C94CC000C94CC000C94CC000C94CC0000
:040050000C94CC0040
:1000600044275FE55DBF54E05EBF50E854BF54BF16
:100070005FEF5ABB57BB54BB51BB4BBB48BB45BBE7
:1000800042BB02D08CD089C055275FBD5BE05EBD0E
:1000900050E04BBD5FE05ABD50E159BF089501C02B
:1000A000189503C02EC03FC0FBCF0F920FB60F9222
:1000B000F8941F922F923F924F925F926F927F928D
:1000C0008F929F92AF92BF92CF92DF92EF92FF9268
:1000D0000F931F932F933F934F935F936F937F9350
:1000E0008F939F93AF93BF93CF93DF93EF93FF9340
:1000F000A0916000B09161000DB60D920EB60D9208
:10010000D1CFE0E6F0E0B0916100A0916000C2E6DE
:10011000D0E0AC1719F4C7E6D0E002C0C2E6D0E0E8
:10012000C193D083C0CFF0916100E0916000528113
:10013000513019F450E052836DC0F0916100E091AC
:100140006000C191CDBFD191CDBFFF91EF91DF9103
:10015000CF91BF91AF919F918F917F916F915F915F
:100160004F913F912F911F910F91FF90EF90DF9052
:10017000CF90BF90AF909F908F907F906F905F9047
:100180004F903F902F901F900F900FBE5F9350E1C4
:1001900058BF5F910F9088CF189526C0FECFC0E65C
:1001A000D0E0A2E6B0E0A993B883C2E6D0E0AEE921
:1001B000B0E0A993B883C7E6D0E0A0EDB0E0A99382
:1001C000B883C9E6D0E051E0588352E3C0916200A1
:1001D000D0910000E0916700F09100005A93529393
:1001E00051505417D9F70895F894509162005DBFAB
:1001F000509100005EBF78945395052E0F92152EF6
:100200001F92252E2F92352E3F920F901F902F90E8
:100210003F90F2CFF894509167005DBF509100007D
:100220005EBF78945395052E0F92152E1F92252EA2
:100230002F92352E3F920F901F902F903F90F2CF2C
:00000001FF
