:020000020000FC
:040000000C9430002C
:10006000002400C0EF93FF930F9300E00093600023
:100070000F910F9300E0009361000F910F9300E048
:10008000009362000F910F9300E0009363000F91C3
:100090000F9308E0009364000F9108E0E0E6F0E0C1
:1000A000359601930A950011FCCFFF91EF91FF92D5
:1000B0001F931091600000916100F0906400011B9B
:1000C00007FD0F0D1F91FF902395EF93FF93E5E63A
:1000D000F0E000916000E00FF01D20830F931F936C
:1000E00010916400009160000395011708F000274B
:1000F000009360001F910F9100916200039500939F
:100100006200FF91EF91FF921F93109160000091A8
:100110006100F0906400011B07FD0F0D1F91FF901F
:10012000023090F6EF93FF93E5E6F0E00091610076
:10013000E00FF01D30810F931F9310916400009128
:1001400061000395011708F00027009361001F91DB
:100150000F91009162000A9500936200FF91EF9168
:10016000FF921F931091600000916100F090640075
:10017000011B07FD0F0D1F91FF90013098F6A4CFD2
:0201800071CF3D
:00000001FF
