:020000020000FC
:100000000C9430000C9443000C9443000C94430077
:100010000C9443000C9443000C9443000C94430054
:100020000C9443000C9443000C9443000C94430044
:100030000C9443000C9443000C9443000C94430034
:100040000C9443000C9443000C9443000C94430024
:040050000C944300C9
:1000600011241FE51DBF14E01EBF10E814BF14BF0C
:100070001FEF1ABB17BB1BBB18BB14BB11BB15BAB8
:1000800012BA00274BC01895742F54E165EF6A959A
:10009000F1F75A95D9F77A95C1F7089512B31F7EF3
:1000A00012BB089512B3137F106112BB089503951C
:1000B000043009F0089500E0089512B30F93000F83
:1000C000000F137F102B10610F9112BB08951FE0DA
:1000D00014BB8FE080958F7085BB0000000000008E
:1000E0000000000000000000000083B3807F982B18
:1000F0008827089510EF14BB80EF8095807F85BB23
:1001000000000000000000000000000000000000EF
:1001100083B38F70982B1FE091270895332499277C
:100120004AEF3327BFDF9927C2DFC7DF492E45BA21
:10013000E1DFCDDF492E11E1142171F112E114212B
:1001400071F114E1142181F118E1142181F111E21E
:10015000142181F112E2142181F114E2142181F1C0
:1001600018E2142181F111E4142181F112E4142127
:1001700081F114E4142191F118E4142191F111E8B2
:10018000142191F112E8142191F114E8142191F154
:1001900018E8142191F134C019EF412E31C01FEF3E
:1001A00014BB14EA412E2CC010EB412E29C018E8D4
:1001B000412E26C019E9412E23C012E9412E20C04C
:1001C00012E8412E1DC013E8412E1AC018EF412E2F
:1001D00017C01FEF14BB10E8412E12C010E9412ECA
:1001E0000FC016EC412E0CC011EA412E09C010ECD4
:1001F000412E06C01EE8412E03C016E8412E00C065
:1002000045BA1FEF14BB40DF8DCFF9A4B088999297
:0A0210008283F88090C6A1C08E869C
:00000001FF
