:020000020000FC
:100000000C9430000C9450000C9450000C94500050
:100010000C9450000C9450000C9451000C9450001F
:100020000C9450000C9450000C9450000C94500010
:100030000C9450000C9450000C9450000C94500000
:100040000C9450000C9450000C9450000C945000F0
:040050000C945000BC
:10006000112701E0C02E212F0FE50DBF04E00EBFC8
:1000700000E804BF04BF01E80FBD01E10EBD00E0D0
:100080001BBD05E00ABD00E109BF00E201BB0FEFA7
:100090000ABB07BB04BB0BBB08BB15BB78941BC0DA
:1000A00018950F930FB70F93EF93FF930F9223952C
:1000B000211719F407E0C394C0223BBBC8BAF894D7
:1000C000BC0C0AD01BBD0ABC0F90FF91EF910F91A1
:1000D0000FBF0F911895FFCF0FE7B022E8EEF0E0C9
:1000E000EB0DF11F04900895404346494C4F525583
:1000F000585B5E606366686A6D6F71737576787958
:100100007B7C7D7E7E7F7F7F7F7F7F7F7E7E7D7C11
:100110007B7978767573716F6D6A686663605E5B14
:100120005855524F4C494643403C393633302D2ABE
:100130002724211F1C19171512100E0C0A09070677
:10014000040302010100000000000000010102039D
:10015000040607090A0C0E10121517191C1F21247A
:08016000272A2D303336393C0B
:00000001FF
