:020000020000FC
:100000000C9430000C942A000C942A000C942A00C2
:100010000C942A000C942A000C942A000C942A00B8
:100020000C942A000C942A000C942A000C942A00A8
:100030000C942A000C942A000C942A000C942A0098
:100040000C942A000C942A000C942A000C942A0088
:060050000C942A00189533
:1000600000243FE53DBF34E03EBF30E834BF34BF3D
:100070003FEF3ABB37BB34BB31BB0BBA08BA05BA4A
:1000800002BA15C0242E54E165EF6A95F1F75A952E
:10009000D9F72A94C1F7089500E01FEF08950BBB2C
:1000A00018BB08950395001F1A9517950895F4DF5E
:0C00B000F6DFF8DF4FEFE6DFFBCFF9CF03
:00000001FF
