:020000020000FC
:100000000C9430000C9445000C9445000C94450071
:100010000C9445000C9445000C9445000C9445004C
:100020000C9445000C9445000C9445000C9445003C
:100030000C9445000C9445000C9445000C9445002C
:100040000C9445000C9445000C9445000C9445001C
:040050000C944500C7
:10006000A1E0B0E011241FE51DBF14E01EBF10E8A1
:1000700014BF14BF1FEF1ABB17BB1BBB18BB14BBAD
:1000800011BB15BA12BA002719C11895242E54E1D4
:1000900065EF6A95F1F75A95D9F72A94C1F7089553
:1000A0001FE014BB00000000000083B3982B10EF8A
:1000B00014BB0000000000000000000083B3982B78
:1000C00091271FEF14BB0895188219821A821B8290
:1000D0000895C0E6D0E00895E0E7F1E008954CE12E
:1000E00042BB22273B81E30FF11D249125BB41E058
:1000F000CDDF089548E142BB22273A81E30FF11D8D
:10010000249125BB41E0C2DF089544E142BB222790
:100110003981E30FF11D249125BB41E0B7DF08953C
:1001200040E142BB22273881E30FF11D249125BB1A
:1001300041E0ACDF0895002791E01196B11D8B2FAF
:100140004A2FC7DFC1DF38D0C7DF0395C8DFC4DF60
:10015000D1DFC2DFDADFC0DFE3DFBEDF0E31A9F7B8
:1001600043E087EEA817B40711F4A0E0B0E00895CB
:10017000C0F9A4B0999282F880908883C6A1868E37
:10018000002791E0A150B1098B2F4A2F9DDF14D099
:10019000A3DF0395A4DFA0DFADDF9EDFB6DF9CDF2A
:1001A000BFDF9ADF0E31A9F740E080E0A817B4075F
:1001B00011F4A7EEB3E008957030A9F111273FE0E4
:1001C0002FEF4217830740F01395421B830B421712
:1001D0008307D0F71883112730E02FEF42178307EA
:1001E00040F01395421B830B42178307D0F7198306
:1001F000112730E020E14217830740F01395421B9E
:10020000830B42178307D0F71A83112730E021E0D0
:100210004217830730F01395421B830B4217830765
:10022000D0F71B830895112733E028EE4217830788
:1002300040F01395421B830B42178307D0F71883B6
:10024000112730E024E64217830740F01395421B44
:10025000830B42178307D0F71983112730E02AE078
:100260004217830740F01395421B830B4217830705
:10027000D0F71A83112730E021E04217830730F0CE
:100280001395421B830B42178307D0F71B830895F6
:1002900001E000950BBB4FDF01E010C002E00095CC
:1002A0000BBB6EDF02E00AC074E070957BBB71E0AF
:1002B00005C078E070957BBB70E000C048EC9927E2
:1002C000EFDE909511E1192319F312E1192331F3AF
:1002D00014E1192349F318E1192359F30130C1F24C
:0602E0000230E1F2ECCF58
:00000001FF
