:020000020000FC
:100000000C943A000C942A000C942A000C942A00B8
:100010000C942A000C942A000C942A000C942A00B8
:100020000C942A000C9430000C942A000C942A00A2
:100030000C942A000C942A000C942A000C942A0098
:100040000C942A000C942A000C942A000C942A0088
:060050000C942A00189533
:100060003FEF3BBB01D01895DB9B02C0DB980895A6
:10007000DB9A0895A1E0B0E000243FE53DBF34E005
:100080003EBF30E834BF34BF3FEF3ABB37BB34BB71
:1000900031BB0BBA08BA05BA02BA31E033BF31E05E
:1000A00039BF02BE78940AC0242E54E165EF6A95E8
:1000B000F1F75A95D9F72A94C1F70895F094FBBA4D
:0400C000F094FCCFED
:00000001FF
