:020000020000FC
:100000000C9430000C9456000C9456000C9456003E
:100010000C9456000C9456000C9456000C94560008
:100020000C9456000C9456000C9456000C945600F8
:100030000C9456000C9456000C9457000C945600E7
:100040000C9456000C9456000C9456000C945600D8
:040050000C945600B6
:10006000112422273FEF1FE51DBF14E01EBF10E83B
:1000700014BF14BF11271ABB17BB1BBB18BB1FEF44
:1000800014BB11BB10E015BB12BB112710E816B949
:10009000112710E2106C176017B9112716B1116003
:1000A00010621064186016B9789403C0189525B1D1
:0C00B00018953FEF321B35BB22BBFBCF85
:00000001FF
