:020000020000FC
:040000000C9430002C
:10006000112433271FE51DBF14E01EBF10E814BF85
:1000700014BF1FEF1ABB17BB1BBB18BB14BB11BBB4
:1000800015BA12BA00276DC0742F54E165EF6A9556
:10009000F1F75A95D9F77A95C1F7089512B31F7EF3
:1000A00012BB089512B3137F106112BB089503951C
:1000B000043009F0089500E0089512B30F93000F83
:1000C000000F137F102B10610F9112BB089533277F
:1000D000892F81FF3F5F82FF3E5F83FF3D5F85FF8A
:1000E0003C5F86FF385F87FF345F0895EEE6F1E0FE
:1000F000E30FF11D049008951FE014BB882785BB12
:1001000000000000000000000000000000000000EF
:1001100083B3807F982B8827089510EF14BB88271E
:1001200085BB00000000000000000000000000008F
:10013000000083B38F70982B1FE091270895B2DFE2
:100140009927B5DFBADF95BBE8DFD6DF9F3F19F40B
:100150001FEF012E02C0BBDFC9DF05BA1FEF14BBC2
:100160000895332499274AEF8FDFE9DFFDCFF9A403
:0E017000B08899928283F88090C6A1C08E86D6
:00000001FF
