:020000020000FC
:100000000C9430000C942A000C942A000C942A00C2
:100010000C942A000C942A000C942A000C942A00B8
:100020000C942A000C942A000C942A000C942A00A8
:100030000C942A000C942A000C942A000C942A0098
:100040000C942A000C942A000C942A000C942A0088
:060050000C942A00189533
:1000600000245FE55DBF54E05EBF50E854BF54BF5D
:100070002AC001E016E022E031E0010F000F230F5B
:10008000200F089501E016E0100F012F110F010F4E
:10009000089501E016E0100F012F000F000F010F6F
:1000A0000895102F000F000F000F011B089504EAA0
:1000B00011E02CE231E0020F131F08950AEF17E060
:0A00C000010F001D0895FADFFECFC6
:00000001FF
