:020000020000FC
:100000000C9430000C9402020C9402020C94020234
:100010000C9402020C9402020C9408010C9402024B
:100020000C9402020C9402020C9402020C94020240
:100030000C9402020C9402020C9402020C94020230
:100040000C9402020C9402020C9402020C94020220
:040050000C94020208
:1000600044275FE55DBF54E05EBF50E854BF54BF16
:100070005FEF5ABB57BB54BB51BB4BBB48BB45BBE7
:1000800042BB55275FBD5BE05EBD50E04BBD5FE00E
:100090005ABD50E159BF55275DBD5CBD0027009397
:1000A000600000936100009362000093630000937E
:1000B0006400009365001F93E4E7E0936600F0E0BE
:1000C000F093670014E0E03011F4F03061F0CE2FCF
:1000D000DF2FEC2FFD2F2496C193D0831A9510307B
:1000E000C1F7199318831F911F93EF93FF93CF9339
:1000F000DF93E4E7F0E0C8E8D0E01127C283D383C0
:100100002996349613951530C9F7DF91CF91FF9159
:10011000EF911F910F931F932F93EF93FF93CF9323
:10012000DF93AF93BF9305E0E8E8F0E0C5EBD0E0E4
:10013000AFEAB1E0E296D2961127EE2FFF2FC083EF
:10014000D183EE2FFF2FA283B383EE2FFF2F1483D3
:10015000158324E0EE2FFF2F268320E2EE2FFF2FC2
:1001600027832227EE2FFF2F20873996E296D296FB
:100170000A95003011F7BF91AF91DF91CF91FF91B8
:10018000EF912F911F910F91AF93BF930F931F93F7
:100190002F933F93A8E8B0E035E0EA2FFB2F0081D2
:1001A000319610810DBF1EBF22E32F932A95203078
:1001B000E1F719963A95303081F73F912F911F91D1
:1001C0000F91BF91AF9100936A0000936B00009371
:1001D00068000093690000936E0000936F00009325
:1001E0006C0000936D000F9300E0009370000F917E
:1001F0000F9300E0009371000F910F9301E00093C3
:1002000072000F910F9303E0009373000F91FBC0F6
:100210000F920FB60F92F8941F922F923F924F9227
:100220005F926F927F928F929F92AF92BF92CF9286
:10023000DF92EF92FF920F931F932F933F934F9371
:100240005F936F937F938F939F93AF93BF93CF935E
:10025000DF93EF93FF93A0916000B0916100EF9363
:10026000FF93EA2FFB2FC281D381FF91EF91FDB65F
:100270000EB7EC2FFD2FF0820183A0916200B091A8
:100280006300A03019F4B03009F482C0E09160003E
:10029000F0916100AE2FBF2FC191D081C09360005B
:1002A000D0936100E0916400F0916500E03089F442
:1002B000F03079F4E4E6F0E0A193B083CC27A030ED
:1002C00019F4B03009F404C0EA2FFB2FC193C083A6
:1002D00012C0C191D081C03059F4D03049F4319767
:1002E000A193B083CA2FDB2FEE27E993E88303C0E5
:1002F000EC2FFD2FEECFE0916400F0916500AE2F62
:10030000BF2FC191D081C0936400D0936500E0916C
:100310006200F0916300E03089F4F03079F4E2E6B5
:10032000F0E0A193B083CC27A03019F4B03009F4E9
:1003300004C0EA2FFB2FC193C08312C0C191D081AA
:10034000C03059F4D03049F43197A193B083CA2F0B
:10035000DB2FEE27E993E88303C0EC2FFD2FEECFD0
:10036000E0916200F0916300AE2FBF2FC191D08168
:10037000C0936200D0936300E0916000F09161004F
:10038000A0936000B0936100CA2FDB2FE993F8833C
:10039000A0916000B0916100EF93FF93EA2FFB2FD3
:1003A000C281D381FF91EF91EC2FFD2FF080319628
:1003B000008112E0EC2FFD2F1683FDBE0EBFFF91D2
:1003C000EF91DF91CF91BF91AF919F918F917F91ED
:1003D0006F915F914F913F912F911F910F91FF90DE
:1003E000EF90DF90CF90BF90AF909F908F907F90D5
:1003F0006F905F904F903F902F901F900F900FBE87
:100400000F9018951895E0916600F0916700AE2F57
:10041000BF2FC191D081C0936600D0936700EF9346
:10042000FF93EA2FFB2FC281D381FF91EF91EC2F35
:10043000FD2F0081319610810DBF1EBF02E0EC2F11
:10044000FD2F068307E0EC2FFD2F0783EC2FFD2FF8
:100450000087E0916000F0916100A0936000B0938C
:100460006100CA2FDB2FE993F88301C0FFCFF89416
:100470002F933F932DB73EB7E0916600F091670050
:10048000AE2FBF2FC191D081C0936600D09367007B
:10049000EF93FF93EA2FFB2FC281D381FF91EF915E
:1004A000EC2FFD2F0081319610810DBF1EBF00EF94
:1004B0000F9303E00F9300270F9300E80F930FE1D2
:1004C00011271F930A950030E1F7FDB60EB7EC2F08
:1004D000FD2FF082018304E0EC2FFD2F068301E065
:1004E000EC2FFD2F07830027EC2FFD2F0087E091D5
:1004F0006200F0916300E03089F4F03079F4E2E6D4
:10050000F0E0A193B083CC27A03019F4B03009F407
:1005100004C0EA2FFB2FC193C08312C0C191D081C8
:10052000C03059F4D03049F43197A193B083CA2F29
:10053000DB2FEE27E993E88303C0EC2FFD2FEECFEE
:100540002DBF3EBF3F912F917894F8942F933F9306
:100550002DB73EB7E0916600F0916700AE2FBF2F38
:10056000C191D081C0936600D0936700EF93FF9351
:10057000EA2FFB2FC281D381FF91EF91EC2FFD2F4A
:100580000081319610810DBF1EBF03E00F9304E080
:100590000F9300270F9300E80F930FE111271F938C
:1005A0000A950030E1F7FDB60EB7EC2FFD2FF08273
:1005B000018304E0EC2FFD2F068302E0EC2FFD2FDA
:1005C00007830027EC2FFD2F0087E0916200F09158
:1005D0006300E03089F4F03079F4E2E6F0E0A193D2
:1005E000B083CC27A03019F4B03009F404C0EA2F4E
:1005F000FB2FC193C08312C0C191D081C03059F488
:10060000D03049F43197A193B083CA2FDB2FEE2766
:10061000E993E88303C0EC2FFD2FEECF2DBF3EBF43
:100620003F912F917894F8942F933F932DB73EB735
:10063000E0916600F0916700AE2FBF2FC191D0818D
:10064000C0936600D0936700EF93FF93EA2FFB2FD0
:10065000C281D381FF91EF91EC2FFD2F0081319664
:1006600010810DBF1EBF06E10F9304E00F9300271A
:100670000F9300E80F930FE111271F930A950030A5
:10068000E1F7FDB60EB7EC2FFD2FF082018304E0F9
:10069000EC2FFD2F068303E0EC2FFD2F07830027AF
:1006A000EC2FFD2F0087E0916200F0916300E030B5
:1006B00089F4F03079F4E2E6F0E0A193B083CC273E
:1006C000A03019F4B03009F404C0EA2FFB2FC19315
:1006D000C08312C0C191D081C03059F4D03049F4E8
:1006E0003197A193B083CA2FDB2FEE27E993E883DC
:1006F00003C0EC2FFD2FEECF2DBF3EBF3F912F91BA
:100700007894F8942F933F932DB73EB7E09166000D
:10071000F0916700AE2FBF2FC191D081C0936600CA
:10072000D0936700EF93FF93EA2FFB2FC281D38111
:10073000FF91EF91EC2FFD2F0081319610810DBFBD
:100740001EBF09E20F9304E00F9300270F9300E808
:100750000F930FE111271F930A950030E1F7FDB6C3
:100760000EB7EC2FFD2FF082018304E0EC2FFD2F5C
:10077000068304E0EC2FFD2F07830027EC2FFD2FCD
:100780000087E0916200F0916300E03089F4F0307E
:1007900079F4E2E6F0E0A193B083CC27A03019F41D
:1007A000B03009F404C0EA2FFB2FC193C08312C0FC
:1007B000C191D081C03059F4D03049F43197A19320
:1007C000B083CA2FDB2FEE27E993E88303C0EC2F19
:1007D000FD2FEECF2DBF3EBF3F912F91789446CE97
:1007E00011E01223103011F00AE001C00AEA18E00B
:1007F0000F931A951030E1F718E00F911A95103009
:10080000E1F72395EDCF11E01223103011F00BE04A
:1008100001C00BEB18E00F931A951030E1F718E0C8
:100820000F911A951030E1F72395EDCF11E01223C7
:10083000103011F00CE001C00CEC18E00F931A9589
:100840001030E1F718E00F911A951030E1F7239579
:10085000EDCF11E01223103011F00DE001C00DEDCD
:1008600018E00F931A951030E1F718E00F911A95E0
:080870001030E1F72395EDCFF4
:00000001FF
