:020000020000FC
:100000000C9430000C9450030C9450030C94500347
:100010000C9450030C9450030C94CD010C94500399
:100020000C9450030C9450030C9450030C94500304
:100030000C9450030C9450030C9450030C945003F4
:100040000C9450030C9450030C9450030C945003E4
:040050000C945003B9
:10006000002450E854BF54BF55275FBD5BE05EBD20
:1000700050E00BBC5FE05ABD50E159BF55275DBD54
:100080005CBD002700936000009361000093620054
:100090000093630000936400009365001F93E4E7FE
:1000A000E0936600F0E0F093670014E0E03011F4B4
:1000B000F03061F0CE2FDF2FEC2FFD2F2496C1936F
:1000C000D0831A951030C1F7199318831F911F938D
:1000D000EF93FF93CF93DF93E4E7F0E0C8EDD0E038
:1000E0001127C283D3832996349613951530C9F707
:1000F000DF91CF91FF91EF911F910F931F932F935A
:10010000EF93FF93CF93DF93AF93BF9305E0E8EDB9
:10011000F0E0C0E5D1E0AAE4B2E0E296D296112781
:10012000EE2FFF2FC083D183EE2FFF2FA283B38347
:10013000EE2FFF2F1483158324E0EE2FFF2F26834D
:1001400020E2EE2FFF2F27832227EE2FFF2F20877D
:100150003996E296D2960A95003011F7BF91AF9189
:10016000DF91CF91FF91EF912F911F910F91AF935D
:10017000BF930F931F932F933F93A8EDB0E035E00B
:10018000EA2FFB2F0081319610810DBF1EBF22E3A5
:100190002F932A952030E1F719963A95303081F760
:1001A0003F912F911F910F91BF91AF911F93E8E85D
:1001B000E0936A00F0E0F0936B001EE0E03011F491
:1001C000F03061F0CE2FDF2FEC2FFD2F2496C1935E
:1001D000D0831A951030C1F7199318831F911F937C
:1001E000EF93FF93CF93DF93E8E8F0E0C5E0D1E031
:1001F0001127C283D3832396349613951F30C9F7F2
:10020000DF91CF91FF91EF911F910F931F93EF9388
:10021000FF930FE0E5E0F1E01127108311831283D3
:1002200033960A950030C9F7FF91EF912F911F91F6
:100230000F91002700936800009369001F93E4EC7E
:10024000E0936E00F0E0F0936F0014E0E03011F402
:10025000F03061F0CE2FDF2FEC2FFD2F2496C193CD
:10026000D0831A951030C1F7199318831F911F93EB
:10027000EF93FF93CF93DF93E4ECF0E0C2E3D1E0A0
:100280001127C283D3832696349613951530C9F768
:10029000DF91CF91FF91EF911F91FF920F931F93E9
:1002A0002F933F934F9345E0F42E4427A0913201C2
:1002B000B0913301A2E3B1E0E0916A00F0916B00EC
:1002C0000E2F1F2FC191D081C0936A00D0936B0075
:1002D000E0916800F0916900009368001093690054
:1002E000C02FD12FE993F883EF93FF93E02FF12FE5
:1002F00022813381FF91EF91EA2FFB2F20833183FD
:10030000E0916A00F0916B000E2F1F2FC191D081F8
:10031000C0936A00D0936B00E0916800F09169008F
:100320000093680010936900C02FD12FE993F883E0
:10033000EF93FF93E02FF12F22813381FF91EF9113
:10034000EA2FFB2F228333832227EA2FFB2F2483DC
:100350002583169643954F11AFCF4F913F912F9123
:100360001F910F91FF90002700936C0000936D0088
:100370000F9300E0009370000F910F9300E0009343
:1003800071000F910F9301E0009372000F910F9392
:1003900003E0009373000F91F1C20F920FB60F921A
:1003A000F8941F922F923F924F925F926F927F929A
:1003B0008F929F92AF92BF92CF92DF92EF92FF9275
:1003C0000F931F932F933F934F935F936F937F935D
:1003D0008F939F93AF93BF93CF93DF93EF93FF934D
:1003E000A0916000B0916100EF93FF93EA2FFB2F83
:1003F000C281D381FF91EF91FDB60EB7EC2FFD2F97
:10040000F0820183E0916000F0916100AE2FBF2F78
:10041000C191D081C0936000D0936100EF93FF93AE
:10042000EA2FFB2F02811381FF91EF91E02FF12F33
:100430002681223051F1E0916400F0916500E030B6
:1004400089F4F03079F4E4E6F0E0A193B083CC27AE
:10045000A03019F4B03009F404C0EA2FFB2FC19387
:10046000C08312C0C191D081C03059F4D03049F45A
:100470003197A193B083CA2FDB2FEE27E993E8834E
:1004800003C0EC2FFD2FEECF2DC024E0E02FF12F85
:100490002683E0916200F0916300E03089F4F0304F
:1004A00079F4E2E6F0E0A193B083CC27A03019F410
:1004B000B03009F404C0EA2FFB2FC193C08312C0EF
:1004C000C191D081C03059F4D03049F43197A19313
:1004D000B083CA2FDB2FEE27E993E88303C0EC2F0C
:1004E000FD2FEECFA0916400B0916500A03019F40B
:1004F000B03009F46EC0EF93FF93EA2FFB2F028117
:100500001381FF91EF91E02FF12F2681243071F0BC
:100510000A2F1B2F003029F4103019F4A0E0B0E0AE
:1005200004C0E02FF12FA191B081E0CF0F931F9372
:10053000E0916400F0916500EA1749F4FB1739F483
:10054000C191D081C0936400D093650016C0C19161
:10055000D081C03029F4D03019F4AA27BB270DC0B0
:10056000AC1719F4BD1709F403C0EC2FFD2FEFCF22
:10057000099118813197019310831F910F91E09198
:100580006200F0916300E03089F4F03079F4E2E643
:10059000F0E0A193B083CC27A03019F4B03009F477
:1005A00004C0EA2FFB2FC193C08312C0C191D08138
:1005B000C03059F4D03049F43197A193B083CA2F99
:1005C000DB2FEE27E993E88303C0EC2FFD2FEECF5E
:1005D0009FCFA0916200B0916300A03019F4B030B9
:1005E00009F418C0E0916200F0916300AE2FBF2FB4
:1005F000C191D081C0936200D0936300E09160000C
:10060000F0916100A0936000B0936100CA2FDB2FCE
:10061000E993F883A0916000B0916100EF93FF939C
:10062000EA2FFB2FC281D381FF91EF91EC2FFD2F99
:10063000F0803196008112E0EC2FFD2F1683FDBE75
:100640000EBFFF91EF91DF91CF91BF91AF919F913D
:100650008F917F916F915F914F913F912F911F915A
:100660000F91FF90EF90DF90CF90BF90AF909F9051
:100670008F907F906F905F904F903F902F901F9042
:100680000F900FBE0F900F9300270DBD0CBD00E122
:1006900008BF09B7006109BF0BE00EBD0F911895A7
:1006A00018950F931F932F93F894018112810030B6
:1006B00031F4103021F42081239520831DC00F9345
:1006C0001F93EF93FF93CF93DF93EE2FFF2FC18103
:1006D000D2810C811D810183128300270C830D833D
:1006E0000C2F1D2FDF91CF91FF91EF911F910F9153
:1006F00024E0E02FF12F268378942F911F910F9102
:100700000895F8940F931F932F933F930081013026
:10071000D8F51091600020916100EF93FF93E12FD5
:10072000F22F02813381FF91EF910F93CF93DF93EB
:10073000EE2FFF2FC181D281C03049F4D03039F47F
:1007400001833283E02FF32F0482058211C0EC81F4
:10075000FD81E03051F4F03041F40C833D83C02F33
:10076000D32FEE27EC83ED8303C0CE2FDF2FEFCF07
:10077000DF91CF910F9121E0E02FF32F268329E025
:100780002EBD0000000002C00A9500833F912F910A
:100790001F910F9178940895C4E4D3E0AE0108E668
:1007A000099305E609930CE609930CE609930FE615
:1007B0000993A0914B03B0914C030F931F93EF93B8
:1007C000FF93EA2FFB2F00811181F8019ADFEA2FB6
:1007D000FB2F44835583EA2FFB2F02811381F801FD
:1007E00060DFFF91EF911F910F91A0914903B091AC
:1007F0004A030F931F93EF93FF93EA2FFB2F02817E
:100800001381F8017EDFEA2FFB2F44815581EA2F07
:10081000FB2F00811181F80144DFFF91EF911F91BF
:100820000F91A0914B03B0914C030F931F93EF9343
:10083000FF93EA2FFB2F00811181F80162DFEA2F7D
:10084000FB2F44835583EA2FFB2F02811381F8018C
:1008500028DFFF91EF911F910F91A0914903B09173
:100860004A03EA2FFB2F04820582BFCF000000005D
:10087000A0914B03B0914C030F931F93EF93FF9301
:10088000EA2FFB2F02811381F8013BDFEA2FFB2FB8
:1008900044815581EA2FFB2F00811181F80101DF8E
:1008A000FF91EF911F910F91A0914D03B0914E03D5
:1008B0000F931F93EF93FF93EA2FFB2F008111817A
:1008C000F8011FDFEA2FFB2F44835583EA2FFB2F0C
:1008D00002811381F801E5DEFF91EF911F910F91E5
:1008E000A0914B03B0914C03EA2FFB2F04820582A9
:1008F000BFCF00000000A0914D03B0914E030F93B5
:100900001F93EF93FF93EA2FFB2F02811381F801CE
:10091000F8DEEA2FFB2F44815581EA2FFB2F00815F
:100920001181F801BEDEFF91EF911F910F91A0910F
:100930004903B0914A030F931F93EF93FF93EA2F5C
:10094000FB2F00811181F801DCDEEA2FFB2F4483AD
:100950005583EA2FFB2F02811381F801A2DEFF915C
:10096000EF911F910F91A0914D03B0914E03EA2F8B
:10097000FB2F04820582BFCF00000000E0916600DB
:10098000F0916700AE2FBF2FC191D081C093660058
:10099000D0936700EF93FF93EA2FFB2FC281D3819F
:1009A000FF91EF91EC2FFD2F0081319610810DBF4B
:1009B0001EBF02E0EC2FFD2F068307E0EC2FFD2F7A
:1009C0000783EC2FFD2F0087E0916000F09161001C
:1009D000A0936000B0936100CA2FDB2FE993F883E6
:1009E00008C0E0914F03F09150038BDEFACF000076
:1009F0000000CF93DF930F931F932F93F894E09110
:100A00006E00F0916F00AE2FBF2FC191D081C093C7
:100A10006E00D0936F00E0916C00F0916D00A09398
:100A20006C00B0936D00CA2FDB2FE993F883ED01C2
:100A3000EF93FF93EC2FFD2F02811381FF91EF9134
:100A4000E02FF12FC081D18121E02883E02FF12F09
:100A5000C281D38122272883A02FB12F78942F9190
:100A60001F910F91DF91CF91A0934903B0934A0357
:100A7000CF93DF930F931F932F93F894E0916E0021
:100A8000F0916F00AE2FBF2FC191D081C0936E0047
:100A9000D0936F00E0916C00F0916D00A0936C001A
:100AA000B0936D00CA2FDB2FE993F883ED01EF932C
:100AB000FF93EC2FFD2F02811381FF91EF91E02F27
:100AC000F12FC081D18121E02883E02FF12FC28155
:100AD000D38122272883A02FB12F78942F911F91A3
:100AE0000F91DF91CF91A0934B03B0934C03CF9321
:100AF000DF930F931F932F93F894E0916E00F09182
:100B00006F00AE2FBF2FC191D081C0936E00D093E4
:100B10006F00E0916C00F0916D00A0936C00B093B9
:100B20006D00CA2FDB2FE993F883ED01EF93FF935C
:100B3000EC2FFD2F02811381FF91EF91E02FF12F18
:100B4000C081D18121E02883E02FF12FC281D381A0
:100B500022272883A02FB12F78942F911F910F91D6
:100B6000DF91CF91A0934D03B0934E03F8942F9350
:100B70003F932DB73EB7E0916600F0916700AE2F2E
:100B8000BF2FC191D081C0936600D0936700EF93CF
:100B9000FF93EA2FFB2FC281D381FF91EF91EC2FBE
:100BA000FD2F0081319610810DBF1EBF0CEC0F93FD
:100BB00003E00F9300270F9300E80F930FE1112735
:100BC0001F930A950030E1F7FDB60EB7EC2FFD2F0D
:100BD000F082018304E0EC2FFD2F068304E0EC2F6C
:100BE000FD2F07830027EC2FFD2F0087E091620087
:100BF000F0916300E03089F4F03079F4E2E6F0E05F
:100C0000A193B083CC27A03019F4B03009F404C00C
:100C1000EA2FFB2FC193C08312C0C191D081C03095
:100C200059F4D03049F43197A193B083CA2FDB2F08
:100C3000EE27E993E88303C0EC2FFD2FEECF2DBF05
:100C40003EBF3F912F917894F8942F933F932DB707
:100C50003EB7E0916600F0916700AE2FBF2FC191C3
:100C6000D081C0936600D0936700EF93FF93EA2F83
:100C7000FB2FC281D381FF91EF91EC2FFD2F0081DB
:100C8000319610810DBF1EBF08E30F9304E00F9350
:100C900000270F9300E80F930FE111271F930A9588
:100CA0000030E1F7FDB60EB7EC2FFD2FF082018387
:100CB00004E0EC2FFD2F068304E0EC2FFD2F0783CB
:100CC0000027EC2FFD2F0087E0916200F091630078
:100CD000E03089F4F03079F4E2E6F0E0A193B083FB
:100CE000CC27A03019F4B03009F404C0EA2FFB2F50
:100CF000C193C08312C0C191D081C03059F4D030AB
:100D000049F43197A193B083CA2FDB2FEE27E993E3
:100D1000E88303C0EC2FFD2FEECF2DBF3EBF3F91E8
:100D20002F917894F8942F933F932DB73EB7E0918D
:100D30006600F0916700AE2FBF2FC191D081C093A4
:100D40006600D0936700EF93FF93EA2FFB2FC281D9
:100D5000D381FF91EF91EC2FFD2F0081319610810F
:100D60000DBF1EBF0BE70F9304E00F9300270F93F7
:100D700000E80F930FE111271F930A950030E1F768
:100D8000FDB60EB7EC2FFD2FF082018304E0EC2FAF
:100D9000FD2F068304E0EC2FFD2F07830027EC2FA7
:100DA000FD2F0087E0916200F0916300E03089F44C
:100DB000F03079F4E2E6F0E0A193B083CC27A030E4
:100DC00019F4B03009F404C0EA2FFB2FC193C0839B
:100DD00012C0C191D081C03059F4D03049F431975C
:100DE000A193B083CA2FDB2FEE27E993E88303C0DA
:100DF000EC2FFD2FEECF2DBF3EBF3F912F9178946A
:100E000020E0F894E0916A00F0916B00AE2FBF2FC4
:100E1000C191D081C0936A00D0936B00E0916800CB
:100E2000F0916900A0936800B0936900CA2FDB2F8E
:100E3000E993F883EF93FF93EA2FFB2F028113814D
:100E4000FF91EF91E02FF12F2083789400934F03CF
:060E500010935003C6CD13
:00000001FF
