:020000020000FC
:100000000C9430000C942A000C942A000C942A00C2
:100010000C942A000C942A000C942A000C942A00B8
:100020000C942A000C942A000C942A000C942A00A8
:100030000C942A000C942A000C942A000C942A0098
:100040000C942A000C942A000C942A000C942A0088
:060050000C942A00189533
:1000600000245FE55DBF54E05EBF50E854BF54BF5D
:1000700031C003E003950A30E9F70895002703959E
:100080000A30E9F708952AE02A3011F435E001C07A
:1000900037E008952A3021F435E000000000F9DF50
:1000A000243121F437E000000000F3DF2E3189F71E
:1000B00039E100000000EDDF0895442763E0639517
:1000C0006A30E9F743954A30C9F708952FE0E2DF37
:1000D00037300895D3DFCDDFD6DFDCDFEEDFF6DFAC
:0200E000F9CF56
:00000001FF
