:020000020000FC
:100000000C9430000C942A000C942A000C942A00C2
:100010000C942A000C942A000C942A000C942A00B8
:100020000C942A000C942A000C942A000C942A00A8
:100030000C942A000C942A000C942A000C942A0098
:100040000C942A000C942A000C942A000C942A0088
:060050000C942A00189533
:1000600000245FE55DBF54E05EBF50E854BF54BF5D
:100070005FEF5ABB57BB54BB51BB0BBA08BA05BAAA
:1000800002BA11C0242E54E165EF6A95F1F75A9532
:10009000D9F72A94C1F70895EAEBF0E008950BBB75
:1000A000089505910895F8DF1127FBDFF8DF4FEF82
:1000B000E9DF13951C30C9F7F6CFFF7F3F5F6F77FD
:0400C0007B7D7E8145
:00000001FF
