:020000020000FC
:100000000C9430000C942A000C942A000C942A00C2
:100010000C942A000C942A000C942A000C942A00B8
:100020000C942A000C942A000C942A000C942A00A8
:100030000C942A000C942A000C942A000C942A0098
:100040000C942A000C942A000C942A000C942A0088
:060050000C942A00189533
:1000600000243FE53DBF34E03EBF30E834BF34BF3D
:100070003FEF3ABB37BB34BB31BB0BBA08BA05BA4A
:1000800002BA38C0242E54E165EF6A95F1F75A950B
:10009000D9F72A94C1F70895C0E6D0E00895E2E3C5
:1000A000F1E00895F9DF088209820A820B8208953F
:1000B000F6DFE10FF01D0895049105BB0895F8DF08
:1000C000FBDF08953327243630F024563395243649
:1000D000D0F7398333272A3030F02A5033952A302D
:1000E000D0F73A8333272B832227089583950895E9
:1000F0008A9508953327949AD5DF282FE3DF188156
:1001000045E0C0DF93989298DADF198145E0BADFC5
:100110009398929AD4DF1A8145E0B4DF939A92982B
:10012000CEDF1B8145E0AEDF939A929AC8DFDEDF17
:10013000E1CFC0F9A4B09992C3F880908883C6A19A
:08014000868EC289E1C7AAAB5B
:00000001FF
